{
  "_format": "hh-sol-artifact-1",
  "contractName": "NFT",
  "sourceName": "contracts/NFT.sol",
  "abi": [
    {
      "inputs": [],
      "stateMutability": "nonpayable",
      "type": "constructor"
    },
    {
      "anonymous": false,
      "inputs": [
        {
          "indexed": true,
          "internalType": "address",
          "name": "account",
          "type": "address"
        },
        {
          "indexed": true,
          "internalType": "address",
          "name": "operator",
          "type": "address"
        },
        {
          "indexed": false,
          "internalType": "bool",
          "name": "approved",
          "type": "bool"
        }
      ],
      "name": "ApprovalForAll",
      "type": "event"
    },
    {
      "anonymous": false,
      "inputs": [
        {
          "indexed": true,
          "internalType": "address",
          "name": "previousOwner",
          "type": "address"
        },
        {
          "indexed": true,
          "internalType": "address",
          "name": "newOwner",
          "type": "address"
        }
      ],
      "name": "OwnershipTransferred",
      "type": "event"
    },
    {
      "anonymous": false,
      "inputs": [
        {
          "indexed": true,
          "internalType": "address",
          "name": "operator",
          "type": "address"
        },
        {
          "indexed": true,
          "internalType": "address",
          "name": "from",
          "type": "address"
        },
        {
          "indexed": true,
          "internalType": "address",
          "name": "to",
          "type": "address"
        },
        {
          "indexed": false,
          "internalType": "uint256[]",
          "name": "ids",
          "type": "uint256[]"
        },
        {
          "indexed": false,
          "internalType": "uint256[]",
          "name": "values",
          "type": "uint256[]"
        }
      ],
      "name": "TransferBatch",
      "type": "event"
    },
    {
      "anonymous": false,
      "inputs": [
        {
          "indexed": true,
          "internalType": "address",
          "name": "operator",
          "type": "address"
        },
        {
          "indexed": true,
          "internalType": "address",
          "name": "from",
          "type": "address"
        },
        {
          "indexed": true,
          "internalType": "address",
          "name": "to",
          "type": "address"
        },
        {
          "indexed": false,
          "internalType": "uint256",
          "name": "id",
          "type": "uint256"
        },
        {
          "indexed": false,
          "internalType": "uint256",
          "name": "value",
          "type": "uint256"
        }
      ],
      "name": "TransferSingle",
      "type": "event"
    },
    {
      "anonymous": false,
      "inputs": [
        {
          "indexed": false,
          "internalType": "string",
          "name": "value",
          "type": "string"
        },
        {
          "indexed": true,
          "internalType": "uint256",
          "name": "id",
          "type": "uint256"
        }
      ],
      "name": "URI",
      "type": "event"
    },
    {
      "inputs": [
        {
          "internalType": "address",
          "name": "account",
          "type": "address"
        },
        {
          "internalType": "uint256",
          "name": "id",
          "type": "uint256"
        }
      ],
      "name": "balanceOf",
      "outputs": [
        {
          "internalType": "uint256",
          "name": "",
          "type": "uint256"
        }
      ],
      "stateMutability": "view",
      "type": "function"
    },
    {
      "inputs": [
        {
          "internalType": "address[]",
          "name": "accounts",
          "type": "address[]"
        },
        {
          "internalType": "uint256[]",
          "name": "ids",
          "type": "uint256[]"
        }
      ],
      "name": "balanceOfBatch",
      "outputs": [
        {
          "internalType": "uint256[]",
          "name": "",
          "type": "uint256[]"
        }
      ],
      "stateMutability": "view",
      "type": "function"
    },
    {
      "inputs": [
        {
          "internalType": "address",
          "name": "account",
          "type": "address"
        },
        {
          "internalType": "uint256",
          "name": "id",
          "type": "uint256"
        },
        {
          "internalType": "uint256",
          "name": "value",
          "type": "uint256"
        }
      ],
      "name": "burn",
      "outputs": [],
      "stateMutability": "nonpayable",
      "type": "function"
    },
    {
      "inputs": [
        {
          "internalType": "address",
          "name": "account",
          "type": "address"
        },
        {
          "internalType": "uint256[]",
          "name": "ids",
          "type": "uint256[]"
        },
        {
          "internalType": "uint256[]",
          "name": "values",
          "type": "uint256[]"
        }
      ],
      "name": "burnBatch",
      "outputs": [],
      "stateMutability": "nonpayable",
      "type": "function"
    },
    {
      "inputs": [
        {
          "internalType": "address",
          "name": "account",
          "type": "address"
        },
        {
          "internalType": "address",
          "name": "operator",
          "type": "address"
        }
      ],
      "name": "isApprovedForAll",
      "outputs": [
        {
          "internalType": "bool",
          "name": "",
          "type": "bool"
        }
      ],
      "stateMutability": "view",
      "type": "function"
    },
    {
      "inputs": [],
      "name": "mint",
      "outputs": [],
      "stateMutability": "nonpayable",
      "type": "function"
    },
    {
      "inputs": [
        {
          "internalType": "address",
          "name": "",
          "type": "address"
        }
      ],
      "name": "minted",
      "outputs": [
        {
          "internalType": "uint256",
          "name": "",
          "type": "uint256"
        }
      ],
      "stateMutability": "view",
      "type": "function"
    },
    {
      "inputs": [],
      "name": "owner",
      "outputs": [
        {
          "internalType": "address",
          "name": "",
          "type": "address"
        }
      ],
      "stateMutability": "view",
      "type": "function"
    },
    {
      "inputs": [],
      "name": "renounceOwnership",
      "outputs": [],
      "stateMutability": "nonpayable",
      "type": "function"
    },
    {
      "inputs": [
        {
          "internalType": "address",
          "name": "from",
          "type": "address"
        },
        {
          "internalType": "address",
          "name": "to",
          "type": "address"
        },
        {
          "internalType": "uint256[]",
          "name": "ids",
          "type": "uint256[]"
        },
        {
          "internalType": "uint256[]",
          "name": "amounts",
          "type": "uint256[]"
        },
        {
          "internalType": "bytes",
          "name": "data",
          "type": "bytes"
        }
      ],
      "name": "safeBatchTransferFrom",
      "outputs": [],
      "stateMutability": "nonpayable",
      "type": "function"
    },
    {
      "inputs": [
        {
          "internalType": "address",
          "name": "from",
          "type": "address"
        },
        {
          "internalType": "address",
          "name": "to",
          "type": "address"
        },
        {
          "internalType": "uint256",
          "name": "id",
          "type": "uint256"
        },
        {
          "internalType": "uint256",
          "name": "amount",
          "type": "uint256"
        },
        {
          "internalType": "bytes",
          "name": "data",
          "type": "bytes"
        }
      ],
      "name": "safeTransferFrom",
      "outputs": [],
      "stateMutability": "nonpayable",
      "type": "function"
    },
    {
      "inputs": [
        {
          "internalType": "address",
          "name": "operator",
          "type": "address"
        },
        {
          "internalType": "bool",
          "name": "approved",
          "type": "bool"
        }
      ],
      "name": "setApprovalForAll",
      "outputs": [],
      "stateMutability": "nonpayable",
      "type": "function"
    },
    {
      "inputs": [
        {
          "internalType": "string",
          "name": "__uri",
          "type": "string"
        }
      ],
      "name": "setUri",
      "outputs": [],
      "stateMutability": "nonpayable",
      "type": "function"
    },
    {
      "inputs": [
        {
          "internalType": "bytes4",
          "name": "interfaceId",
          "type": "bytes4"
        }
      ],
      "name": "supportsInterface",
      "outputs": [
        {
          "internalType": "bool",
          "name": "",
          "type": "bool"
        }
      ],
      "stateMutability": "view",
      "type": "function"
    },
    {
      "inputs": [
        {
          "internalType": "address",
          "name": "newOwner",
          "type": "address"
        }
      ],
      "name": "transferOwnership",
      "outputs": [],
      "stateMutability": "nonpayable",
      "type": "function"
    },
    {
      "inputs": [
        {
          "internalType": "uint256",
          "name": "",
          "type": "uint256"
        }
      ],
      "name": "uri",
      "outputs": [
        {
          "internalType": "string",
          "name": "",
          "type": "string"
        }
      ],
      "stateMutability": "view",
      "type": "function"
    }
  ],
  "bytecode": "0x60806040523480156200001157600080fd5b506040518060200160405280600081525062000033816200005a60201b60201c565b5062000054620000486200007660201b60201c565b6200007e60201b60201c565b62000259565b80600290805190602001906200007292919062000144565b5050565b600033905090565b6000600360009054906101000a900473ffffffffffffffffffffffffffffffffffffffff16905081600360006101000a81548173ffffffffffffffffffffffffffffffffffffffff021916908373ffffffffffffffffffffffffffffffffffffffff1602179055508173ffffffffffffffffffffffffffffffffffffffff168173ffffffffffffffffffffffffffffffffffffffff167f8be0079c531659141344cd1fd0a4f28419497f9722a3daafe3b4186f6b6457e060405160405180910390a35050565b828054620001529062000223565b90600052602060002090601f016020900481019282620001765760008555620001c2565b82601f106200019157805160ff1916838001178555620001c2565b82800160010185558215620001c2579182015b82811115620001c1578251825591602001919060010190620001a4565b5b509050620001d19190620001d5565b5090565b5b80821115620001f0576000816000905550600101620001d6565b5090565b7f4e487b7100000000000000000000000000000000000000000000000000000000600052602260045260246000fd5b600060028204905060018216806200023c57607f821691505b60208210811415620002535762000252620001f4565b5b50919050565b61380b80620002696000396000f3fe608060405234801561001057600080fd5b50600436106100ff5760003560e01c8063715018a611610097578063e985e9c511610066578063e985e9c514610296578063f242432a146102c6578063f2fde38b146102e2578063f5298aca146102fe576100ff565b8063715018a6146102365780638da5cb5b146102405780639b642de11461025e578063a22cb4651461027a576100ff565b80631e7269c5116100d35780631e7269c51461019e5780632eb2c2d6146101ce5780634e1273f4146101ea5780636b20c4541461021a576100ff565b8062fdd58e1461010457806301ffc9a7146101345780630e89341c146101645780631249c58b14610194575b600080fd5b61011e60048036038101906101199190612111565b61031a565b60405161012b9190612160565b60405180910390f35b61014e600480360381019061014991906121d3565b6103e3565b60405161015b919061221b565b60405180910390f35b61017e60048036038101906101799190612236565b6104c5565b60405161018b91906122fc565b60405180910390f35b61019c610559565b005b6101b860048036038101906101b3919061231e565b61064f565b6040516101c59190612160565b60405180910390f35b6101e860048036038101906101e39190612548565b610667565b005b61020460048036038101906101ff91906126da565b610708565b6040516102119190612810565b60405180910390f35b610234600480360381019061022f9190612832565b610821565b005b61023e6108be565b005b610248610946565b60405161025591906128cc565b60405180910390f35b61027860048036038101906102739190612942565b610970565b005b610294600480360381019061028f91906129bb565b610a02565b005b6102b060048036038101906102ab91906129fb565b610a18565b6040516102bd919061221b565b60405180910390f35b6102e060048036038101906102db9190612a3b565b610aac565b005b6102fc60048036038101906102f7919061231e565b610b4d565b005b61031860048036038101906103139190612ad2565b610c45565b005b60008073ffffffffffffffffffffffffffffffffffffffff168373ffffffffffffffffffffffffffffffffffffffff16141561038b576040517f08c379a000000000000000000000000000000000000000000000000000000000815260040161038290612b97565b60405180910390fd5b60008083815260200190815260200160002060008473ffffffffffffffffffffffffffffffffffffffff1673ffffffffffffffffffffffffffffffffffffffff16815260200190815260200160002054905092915050565b60007fd9b67a26000000000000000000000000000000000000000000000000000000007bffffffffffffffffffffffffffffffffffffffffffffffffffffffff1916827bffffffffffffffffffffffffffffffffffffffffffffffffffffffff191614806104ae57507f0e89341c000000000000000000000000000000000000000000000000000000007bffffffffffffffffffffffffffffffffffffffffffffffffffffffff1916827bffffffffffffffffffffffffffffffffffffffffffffffffffffffff1916145b806104be57506104bd82610ce2565b5b9050919050565b6060600480546104d490612be6565b80601f016020809104026020016040519081016040528092919081815260200182805461050090612be6565b801561054d5780601f106105225761010080835404028352916020019161054d565b820191906000526020600020905b81548152906001019060200180831161053057829003601f168201915b50505050509050919050565b6006600560003373ffffffffffffffffffffffffffffffffffffffff1673ffffffffffffffffffffffffffffffffffffffff16815260200190815260200160002054106105db576040517f08c379a00000000000000000000000000000000000000000000000000000000081526004016105d290612c64565b60405180910390fd5b600560003373ffffffffffffffffffffffffffffffffffffffff1673ffffffffffffffffffffffffffffffffffffffff168152602001908152602001600020600081548092919061062b90612cb3565b919050555061064d336000600160405180602001604052806000815250610d4c565b565b60056020528060005260406000206000915090505481565b61066f610ee2565b73ffffffffffffffffffffffffffffffffffffffff168573ffffffffffffffffffffffffffffffffffffffff1614806106b557506106b4856106af610ee2565b610a18565b5b6106f4576040517f08c379a00000000000000000000000000000000000000000000000000000000081526004016106eb90612d6e565b60405180910390fd5b6107018585858585610eea565b5050505050565b6060815183511461074e576040517f08c379a000000000000000000000000000000000000000000000000000000000815260040161074590612e00565b60405180910390fd5b6000835167ffffffffffffffff81111561076b5761076a612350565b5b6040519080825280602002602001820160405280156107995781602001602082028036833780820191505090505b50905060005b8451811015610816576107e68582815181106107be576107bd612e20565b5b60200260200101518583815181106107d9576107d8612e20565b5b602002602001015161031a565b8282815181106107f9576107f8612e20565b5b6020026020010181815250508061080f90612cb3565b905061079f565b508091505092915050565b610829610ee2565b73ffffffffffffffffffffffffffffffffffffffff168373ffffffffffffffffffffffffffffffffffffffff16148061086f575061086e83610869610ee2565b610a18565b5b6108ae576040517f08c379a00000000000000000000000000000000000000000000000000000000081526004016108a590612ec1565b60405180910390fd5b6108b98383836111fe565b505050565b6108c6610ee2565b73ffffffffffffffffffffffffffffffffffffffff166108e4610946565b73ffffffffffffffffffffffffffffffffffffffff161461093a576040517f08c379a000000000000000000000000000000000000000000000000000000000815260040161093190612f2d565b60405180910390fd5b61094460006114af565b565b6000600360009054906101000a900473ffffffffffffffffffffffffffffffffffffffff16905090565b610978610ee2565b73ffffffffffffffffffffffffffffffffffffffff16610996610946565b73ffffffffffffffffffffffffffffffffffffffff16146109ec576040517f08c379a00000000000000000000000000000000000000000000000000000000081526004016109e390612f2d565b60405180910390fd5b8181600491906109fd929190611fc6565b505050565b610a14610a0d610ee2565b8383611575565b5050565b6000600160008473ffffffffffffffffffffffffffffffffffffffff1673ffffffffffffffffffffffffffffffffffffffff16815260200190815260200160002060008373ffffffffffffffffffffffffffffffffffffffff1673ffffffffffffffffffffffffffffffffffffffff16815260200190815260200160002060009054906101000a900460ff16905092915050565b610ab4610ee2565b73ffffffffffffffffffffffffffffffffffffffff168573ffffffffffffffffffffffffffffffffffffffff161480610afa5750610af985610af4610ee2565b610a18565b5b610b39576040517f08c379a0000000000000000000000000000000000000000000000000000000008152600401610b3090612ec1565b60405180910390fd5b610b4685858585856116e2565b5050505050565b610b55610ee2565b73ffffffffffffffffffffffffffffffffffffffff16610b73610946565b73ffffffffffffffffffffffffffffffffffffffff1614610bc9576040517f08c379a0000000000000000000000000000000000000000000000000000000008152600401610bc090612f2d565b60405180910390fd5b600073ffffffffffffffffffffffffffffffffffffffff168173ffffffffffffffffffffffffffffffffffffffff161415610c39576040517f08c379a0000000000000000000000000000000000000000000000000000000008152600401610c3090612fbf565b60405180910390fd5b610c42816114af565b50565b610c4d610ee2565b73ffffffffffffffffffffffffffffffffffffffff168373ffffffffffffffffffffffffffffffffffffffff161480610c935750610c9283610c8d610ee2565b610a18565b5b610cd2576040517f08c379a0000000000000000000000000000000000000000000000000000000008152600401610cc990612ec1565b60405180910390fd5b610cdd838383611964565b505050565b60007f01ffc9a7000000000000000000000000000000000000000000000000000000007bffffffffffffffffffffffffffffffffffffffffffffffffffffffff1916827bffffffffffffffffffffffffffffffffffffffffffffffffffffffff1916149050919050565b600073ffffffffffffffffffffffffffffffffffffffff168473ffffffffffffffffffffffffffffffffffffffff161415610dbc576040517f08c379a0000000000000000000000000000000000000000000000000000000008152600401610db390613051565b60405180910390fd5b6000610dc6610ee2565b9050610de781600087610dd888611b81565b610de188611b81565b87611bfb565b8260008086815260200190815260200160002060008773ffffffffffffffffffffffffffffffffffffffff1673ffffffffffffffffffffffffffffffffffffffff1681526020019081526020016000206000828254610e469190613071565b925050819055508473ffffffffffffffffffffffffffffffffffffffff16600073ffffffffffffffffffffffffffffffffffffffff168273ffffffffffffffffffffffffffffffffffffffff167fc3d58168c5ae7397731d063d5bbf3d657854427343f4c083240f7aacaa2d0f628787604051610ec49291906130c7565b60405180910390a4610edb81600087878787611c03565b5050505050565b600033905090565b8151835114610f2e576040517f08c379a0000000000000000000000000000000000000000000000000000000008152600401610f2590613162565b60405180910390fd5b600073ffffffffffffffffffffffffffffffffffffffff168473ffffffffffffffffffffffffffffffffffffffff161415610f9e576040517f08c379a0000000000000000000000000000000000000000000000000000000008152600401610f95906131f4565b60405180910390fd5b6000610fa8610ee2565b9050610fb8818787878787611bfb565b60005b8451811015611169576000858281518110610fd957610fd8612e20565b5b602002602001015190506000858381518110610ff857610ff7612e20565b5b60200260200101519050600080600084815260200190815260200160002060008b73ffffffffffffffffffffffffffffffffffffffff1673ffffffffffffffffffffffffffffffffffffffff16815260200190815260200160002054905081811015611099576040517f08c379a000000000000000000000000000000000000000000000000000000000815260040161109090613286565b60405180910390fd5b81810360008085815260200190815260200160002060008c73ffffffffffffffffffffffffffffffffffffffff1673ffffffffffffffffffffffffffffffffffffffff168152602001908152602001600020819055508160008085815260200190815260200160002060008b73ffffffffffffffffffffffffffffffffffffffff1673ffffffffffffffffffffffffffffffffffffffff168152602001908152602001600020600082825461114e9190613071565b925050819055505050508061116290612cb3565b9050610fbb565b508473ffffffffffffffffffffffffffffffffffffffff168673ffffffffffffffffffffffffffffffffffffffff168273ffffffffffffffffffffffffffffffffffffffff167f4a39dc06d4c0dbc64b70af90fd698a233a518aa5d07e595d983b8c0526c8f7fb87876040516111e09291906132a6565b60405180910390a46111f6818787878787611ddb565b505050505050565b600073ffffffffffffffffffffffffffffffffffffffff168373ffffffffffffffffffffffffffffffffffffffff16141561126e576040517f08c379a00000000000000000000000000000000000000000000000000000000081526004016112659061334f565b60405180910390fd5b80518251146112b2576040517f08c379a00000000000000000000000000000000000000000000000000000000081526004016112a990613162565b60405180910390fd5b60006112bc610ee2565b90506112dc81856000868660405180602001604052806000815250611bfb565b60005b83518110156114295760008482815181106112fd576112fc612e20565b5b60200260200101519050600084838151811061131c5761131b612e20565b5b60200260200101519050600080600084815260200190815260200160002060008973ffffffffffffffffffffffffffffffffffffffff1673ffffffffffffffffffffffffffffffffffffffff168152602001908152602001600020549050818110156113bd576040517f08c379a00000000000000000000000000000000000000000000000000000000081526004016113b4906133e1565b60405180910390fd5b81810360008085815260200190815260200160002060008a73ffffffffffffffffffffffffffffffffffffffff1673ffffffffffffffffffffffffffffffffffffffff16815260200190815260200160002081905550505050808061142190612cb3565b9150506112df565b50600073ffffffffffffffffffffffffffffffffffffffff168473ffffffffffffffffffffffffffffffffffffffff168273ffffffffffffffffffffffffffffffffffffffff167f4a39dc06d4c0dbc64b70af90fd698a233a518aa5d07e595d983b8c0526c8f7fb86866040516114a19291906132a6565b60405180910390a450505050565b6000600360009054906101000a900473ffffffffffffffffffffffffffffffffffffffff16905081600360006101000a81548173ffffffffffffffffffffffffffffffffffffffff021916908373ffffffffffffffffffffffffffffffffffffffff1602179055508173ffffffffffffffffffffffffffffffffffffffff168173ffffffffffffffffffffffffffffffffffffffff167f8be0079c531659141344cd1fd0a4f28419497f9722a3daafe3b4186f6b6457e060405160405180910390a35050565b8173ffffffffffffffffffffffffffffffffffffffff168373ffffffffffffffffffffffffffffffffffffffff1614156115e4576040517f08c379a00000000000000000000000000000000000000000000000000000000081526004016115db90613473565b60405180910390fd5b80600160008573ffffffffffffffffffffffffffffffffffffffff1673ffffffffffffffffffffffffffffffffffffffff16815260200190815260200160002060008473ffffffffffffffffffffffffffffffffffffffff1673ffffffffffffffffffffffffffffffffffffffff16815260200190815260200160002060006101000a81548160ff0219169083151502179055508173ffffffffffffffffffffffffffffffffffffffff168373ffffffffffffffffffffffffffffffffffffffff167f17307eab39ab6107e8899845ad3d59bd9653f200f220920489ca2b5937696c31836040516116d5919061221b565b60405180910390a3505050565b600073ffffffffffffffffffffffffffffffffffffffff168473ffffffffffffffffffffffffffffffffffffffff161415611752576040517f08c379a0000000000000000000000000000000000000000000000000000000008152600401611749906131f4565b60405180910390fd5b600061175c610ee2565b905061177c81878761176d88611b81565b61177688611b81565b87611bfb565b600080600086815260200190815260200160002060008873ffffffffffffffffffffffffffffffffffffffff1673ffffffffffffffffffffffffffffffffffffffff16815260200190815260200160002054905083811015611813576040517f08c379a000000000000000000000000000000000000000000000000000000000815260040161180a90613286565b60405180910390fd5b83810360008087815260200190815260200160002060008973ffffffffffffffffffffffffffffffffffffffff1673ffffffffffffffffffffffffffffffffffffffff168152602001908152602001600020819055508360008087815260200190815260200160002060008873ffffffffffffffffffffffffffffffffffffffff1673ffffffffffffffffffffffffffffffffffffffff16815260200190815260200160002060008282546118c89190613071565b925050819055508573ffffffffffffffffffffffffffffffffffffffff168773ffffffffffffffffffffffffffffffffffffffff168373ffffffffffffffffffffffffffffffffffffffff167fc3d58168c5ae7397731d063d5bbf3d657854427343f4c083240f7aacaa2d0f6288886040516119459291906130c7565b60405180910390a461195b828888888888611c03565b50505050505050565b600073ffffffffffffffffffffffffffffffffffffffff168373ffffffffffffffffffffffffffffffffffffffff1614156119d4576040517f08c379a00000000000000000000000000000000000000000000000000000000081526004016119cb9061334f565b60405180910390fd5b60006119de610ee2565b9050611a0e818560006119f087611b81565b6119f987611b81565b60405180602001604052806000815250611bfb565b600080600085815260200190815260200160002060008673ffffffffffffffffffffffffffffffffffffffff1673ffffffffffffffffffffffffffffffffffffffff16815260200190815260200160002054905082811015611aa5576040517f08c379a0000000000000000000000000000000000000000000000000000000008152600401611a9c906133e1565b60405180910390fd5b82810360008086815260200190815260200160002060008773ffffffffffffffffffffffffffffffffffffffff1673ffffffffffffffffffffffffffffffffffffffff16815260200190815260200160002081905550600073ffffffffffffffffffffffffffffffffffffffff168573ffffffffffffffffffffffffffffffffffffffff168373ffffffffffffffffffffffffffffffffffffffff167fc3d58168c5ae7397731d063d5bbf3d657854427343f4c083240f7aacaa2d0f628787604051611b729291906130c7565b60405180910390a45050505050565b60606000600167ffffffffffffffff811115611ba057611b9f612350565b5b604051908082528060200260200182016040528015611bce5781602001602082028036833780820191505090505b5090508281600081518110611be657611be5612e20565b5b60200260200101818152505080915050919050565b505050505050565b611c228473ffffffffffffffffffffffffffffffffffffffff16611fb3565b15611dd3578373ffffffffffffffffffffffffffffffffffffffff1663f23a6e6187878686866040518663ffffffff1660e01b8152600401611c689594939291906134e8565b6020604051808303816000875af1925050508015611ca457506040513d601f19601f82011682018060405250810190611ca19190613557565b60015b611d4a57611cb0613591565b806308c379a01415611d0d5750611cc56135b3565b80611cd05750611d0f565b806040517f08c379a0000000000000000000000000000000000000000000000000000000008152600401611d0491906122fc565b60405180910390fd5b505b6040517f08c379a0000000000000000000000000000000000000000000000000000000008152600401611d41906136bb565b60405180910390fd5b63f23a6e6160e01b7bffffffffffffffffffffffffffffffffffffffffffffffffffffffff1916817bffffffffffffffffffffffffffffffffffffffffffffffffffffffff191614611dd1576040517f08c379a0000000000000000000000000000000000000000000000000000000008152600401611dc89061374d565b60405180910390fd5b505b505050505050565b611dfa8473ffffffffffffffffffffffffffffffffffffffff16611fb3565b15611fab578373ffffffffffffffffffffffffffffffffffffffff1663bc197c8187878686866040518663ffffffff1660e01b8152600401611e4095949392919061376d565b6020604051808303816000875af1925050508015611e7c57506040513d601f19601f82011682018060405250810190611e799190613557565b60015b611f2257611e88613591565b806308c379a01415611ee55750611e9d6135b3565b80611ea85750611ee7565b806040517f08c379a0000000000000000000000000000000000000000000000000000000008152600401611edc91906122fc565b60405180910390fd5b505b6040517f08c379a0000000000000000000000000000000000000000000000000000000008152600401611f19906136bb565b60405180910390fd5b63bc197c8160e01b7bffffffffffffffffffffffffffffffffffffffffffffffffffffffff1916817bffffffffffffffffffffffffffffffffffffffffffffffffffffffff191614611fa9576040517f08c379a0000000000000000000000000000000000000000000000000000000008152600401611fa09061374d565b60405180910390fd5b505b505050505050565b600080823b905060008111915050919050565b828054611fd290612be6565b90600052602060002090601f016020900481019282611ff4576000855561203b565b82601f1061200d57803560ff191683800117855561203b565b8280016001018555821561203b579182015b8281111561203a57823582559160200191906001019061201f565b5b509050612048919061204c565b5090565b5b8082111561206557600081600090555060010161204d565b5090565b6000604051905090565b600080fd5b600080fd5b600073ffffffffffffffffffffffffffffffffffffffff82169050919050565b60006120a88261207d565b9050919050565b6120b88161209d565b81146120c357600080fd5b50565b6000813590506120d5816120af565b92915050565b6000819050919050565b6120ee816120db565b81146120f957600080fd5b50565b60008135905061210b816120e5565b92915050565b6000806040838503121561212857612127612073565b5b6000612136858286016120c6565b9250506020612147858286016120fc565b9150509250929050565b61215a816120db565b82525050565b60006020820190506121756000830184612151565b92915050565b60007fffffffff0000000000000000000000000000000000000000000000000000000082169050919050565b6121b08161217b565b81146121bb57600080fd5b50565b6000813590506121cd816121a7565b92915050565b6000602082840312156121e9576121e8612073565b5b60006121f7848285016121be565b91505092915050565b60008115159050919050565b61221581612200565b82525050565b6000602082019050612230600083018461220c565b92915050565b60006020828403121561224c5761224b612073565b5b600061225a848285016120fc565b91505092915050565b600081519050919050565b600082825260208201905092915050565b60005b8381101561229d578082015181840152602081019050612282565b838111156122ac576000848401525b50505050565b6000601f19601f8301169050919050565b60006122ce82612263565b6122d8818561226e565b93506122e881856020860161227f565b6122f1816122b2565b840191505092915050565b6000602082019050818103600083015261231681846122c3565b905092915050565b60006020828403121561233457612333612073565b5b6000612342848285016120c6565b91505092915050565b600080fd5b7f4e487b7100000000000000000000000000000000000000000000000000000000600052604160045260246000fd5b612388826122b2565b810181811067ffffffffffffffff821117156123a7576123a6612350565b5b80604052505050565b60006123ba612069565b90506123c6828261237f565b919050565b600067ffffffffffffffff8211156123e6576123e5612350565b5b602082029050602081019050919050565b600080fd5b600061240f61240a846123cb565b6123b0565b90508083825260208201905060208402830185811115612432576124316123f7565b5b835b8181101561245b578061244788826120fc565b845260208401935050602081019050612434565b5050509392505050565b600082601f83011261247a5761247961234b565b5b813561248a8482602086016123fc565b91505092915050565b600080fd5b600067ffffffffffffffff8211156124b3576124b2612350565b5b6124bc826122b2565b9050602081019050919050565b82818337600083830152505050565b60006124eb6124e684612498565b6123b0565b90508281526020810184848401111561250757612506612493565b5b6125128482856124c9565b509392505050565b600082601f83011261252f5761252e61234b565b5b813561253f8482602086016124d8565b91505092915050565b600080600080600060a0868803121561256457612563612073565b5b6000612572888289016120c6565b9550506020612583888289016120c6565b945050604086013567ffffffffffffffff8111156125a4576125a3612078565b5b6125b088828901612465565b935050606086013567ffffffffffffffff8111156125d1576125d0612078565b5b6125dd88828901612465565b925050608086013567ffffffffffffffff8111156125fe576125fd612078565b5b61260a8882890161251a565b9150509295509295909350565b600067ffffffffffffffff82111561263257612631612350565b5b602082029050602081019050919050565b600061265661265184612617565b6123b0565b90508083825260208201905060208402830185811115612679576126786123f7565b5b835b818110156126a2578061268e88826120c6565b84526020840193505060208101905061267b565b5050509392505050565b600082601f8301126126c1576126c061234b565b5b81356126d1848260208601612643565b91505092915050565b600080604083850312156126f1576126f0612073565b5b600083013567ffffffffffffffff81111561270f5761270e612078565b5b61271b858286016126ac565b925050602083013567ffffffffffffffff81111561273c5761273b612078565b5b61274885828601612465565b9150509250929050565b600081519050919050565b600082825260208201905092915050565b6000819050602082019050919050565b612787816120db565b82525050565b6000612799838361277e565b60208301905092915050565b6000602082019050919050565b60006127bd82612752565b6127c7818561275d565b93506127d28361276e565b8060005b838110156128035781516127ea888261278d565b97506127f5836127a5565b9250506001810190506127d6565b5085935050505092915050565b6000602082019050818103600083015261282a81846127b2565b905092915050565b60008060006060848603121561284b5761284a612073565b5b6000612859868287016120c6565b935050602084013567ffffffffffffffff81111561287a57612879612078565b5b61288686828701612465565b925050604084013567ffffffffffffffff8111156128a7576128a6612078565b5b6128b386828701612465565b9150509250925092565b6128c68161209d565b82525050565b60006020820190506128e160008301846128bd565b92915050565b600080fd5b60008083601f8401126129025761290161234b565b5b8235905067ffffffffffffffff81111561291f5761291e6128e7565b5b60208301915083600182028301111561293b5761293a6123f7565b5b9250929050565b6000806020838503121561295957612958612073565b5b600083013567ffffffffffffffff81111561297757612976612078565b5b612983858286016128ec565b92509250509250929050565b61299881612200565b81146129a357600080fd5b50565b6000813590506129b58161298f565b92915050565b600080604083850312156129d2576129d1612073565b5b60006129e0858286016120c6565b92505060206129f1858286016129a6565b9150509250929050565b60008060408385031215612a1257612a11612073565b5b6000612a20858286016120c6565b9250506020612a31858286016120c6565b9150509250929050565b600080600080600060a08688031215612a5757612a56612073565b5b6000612a65888289016120c6565b9550506020612a76888289016120c6565b9450506040612a87888289016120fc565b9350506060612a98888289016120fc565b925050608086013567ffffffffffffffff811115612ab957612ab8612078565b5b612ac58882890161251a565b9150509295509295909350565b600080600060608486031215612aeb57612aea612073565b5b6000612af9868287016120c6565b9350506020612b0a868287016120fc565b9250506040612b1b868287016120fc565b9150509250925092565b7f455243313135353a2062616c616e636520717565727920666f7220746865207a60008201527f65726f2061646472657373000000000000000000000000000000000000000000602082015250565b6000612b81602b8361226e565b9150612b8c82612b25565b604082019050919050565b60006020820190508181036000830152612bb081612b74565b9050919050565b7f4e487b7100000000000000000000000000000000000000000000000000000000600052602260045260246000fd5b60006002820490506001821680612bfe57607f821691505b60208210811415612c1257612c11612bb7565b5b50919050565b7f3520706572206164647265737300000000000000000000000000000000000000600082015250565b6000612c4e600d8361226e565b9150612c5982612c18565b602082019050919050565b60006020820190508181036000830152612c7d81612c41565b9050919050565b7f4e487b7100000000000000000000000000000000000000000000000000000000600052601160045260246000fd5b6000612cbe826120db565b91507fffffffffffffffffffffffffffffffffffffffffffffffffffffffffffffffff821415612cf157612cf0612c84565b5b600182019050919050565b7f455243313135353a207472616e736665722063616c6c6572206973206e6f742060008201527f6f776e6572206e6f7220617070726f7665640000000000000000000000000000602082015250565b6000612d5860328361226e565b9150612d6382612cfc565b604082019050919050565b60006020820190508181036000830152612d8781612d4b565b9050919050565b7f455243313135353a206163636f756e747320616e6420696473206c656e67746860008201527f206d69736d617463680000000000000000000000000000000000000000000000602082015250565b6000612dea60298361226e565b9150612df582612d8e565b604082019050919050565b60006020820190508181036000830152612e1981612ddd565b9050919050565b7f4e487b7100000000000000000000000000000000000000000000000000000000600052603260045260246000fd5b7f455243313135353a2063616c6c6572206973206e6f74206f776e6572206e6f7260008201527f20617070726f7665640000000000000000000000000000000000000000000000602082015250565b6000612eab60298361226e565b9150612eb682612e4f565b604082019050919050565b60006020820190508181036000830152612eda81612e9e565b9050919050565b7f4f776e61626c653a2063616c6c6572206973206e6f7420746865206f776e6572600082015250565b6000612f1760208361226e565b9150612f2282612ee1565b602082019050919050565b60006020820190508181036000830152612f4681612f0a565b9050919050565b7f4f776e61626c653a206e6577206f776e657220697320746865207a65726f206160008201527f6464726573730000000000000000000000000000000000000000000000000000602082015250565b6000612fa960268361226e565b9150612fb482612f4d565b604082019050919050565b60006020820190508181036000830152612fd881612f9c565b9050919050565b7f455243313135353a206d696e7420746f20746865207a65726f2061646472657360008201527f7300000000000000000000000000000000000000000000000000000000000000602082015250565b600061303b60218361226e565b915061304682612fdf565b604082019050919050565b6000602082019050818103600083015261306a8161302e565b9050919050565b600061307c826120db565b9150613087836120db565b9250827fffffffffffffffffffffffffffffffffffffffffffffffffffffffffffffffff038211156130bc576130bb612c84565b5b828201905092915050565b60006040820190506130dc6000830185612151565b6130e96020830184612151565b9392505050565b7f455243313135353a2069647320616e6420616d6f756e7473206c656e6774682060008201527f6d69736d61746368000000000000000000000000000000000000000000000000602082015250565b600061314c60288361226e565b9150613157826130f0565b604082019050919050565b6000602082019050818103600083015261317b8161313f565b9050919050565b7f455243313135353a207472616e7366657220746f20746865207a65726f20616460008201527f6472657373000000000000000000000000000000000000000000000000000000602082015250565b60006131de60258361226e565b91506131e982613182565b604082019050919050565b6000602082019050818103600083015261320d816131d1565b9050919050565b7f455243313135353a20696e73756666696369656e742062616c616e636520666f60008201527f72207472616e7366657200000000000000000000000000000000000000000000602082015250565b6000613270602a8361226e565b915061327b82613214565b604082019050919050565b6000602082019050818103600083015261329f81613263565b9050919050565b600060408201905081810360008301526132c081856127b2565b905081810360208301526132d481846127b2565b90509392505050565b7f455243313135353a206275726e2066726f6d20746865207a65726f206164647260008201527f6573730000000000000000000000000000000000000000000000000000000000602082015250565b600061333960238361226e565b9150613344826132dd565b604082019050919050565b600060208201905081810360008301526133688161332c565b9050919050565b7f455243313135353a206275726e20616d6f756e7420657863656564732062616c60008201527f616e636500000000000000000000000000000000000000000000000000000000602082015250565b60006133cb60248361226e565b91506133d68261336f565b604082019050919050565b600060208201905081810360008301526133fa816133be565b9050919050565b7f455243313135353a2073657474696e6720617070726f76616c2073746174757360008201527f20666f722073656c660000000000000000000000000000000000000000000000602082015250565b600061345d60298361226e565b915061346882613401565b604082019050919050565b6000602082019050818103600083015261348c81613450565b9050919050565b600081519050919050565b600082825260208201905092915050565b60006134ba82613493565b6134c4818561349e565b93506134d481856020860161227f565b6134dd816122b2565b840191505092915050565b600060a0820190506134fd60008301886128bd565b61350a60208301876128bd565b6135176040830186612151565b6135246060830185612151565b818103608083015261353681846134af565b90509695505050505050565b600081519050613551816121a7565b92915050565b60006020828403121561356d5761356c612073565b5b600061357b84828501613542565b91505092915050565b60008160e01c9050919050565b600060033d11156135b05760046000803e6135ad600051613584565b90505b90565b600060443d10156135c357613646565b6135cb612069565b60043d036004823e80513d602482011167ffffffffffffffff821117156135f3575050613646565b808201805167ffffffffffffffff8111156136115750505050613646565b80602083010160043d03850181111561362e575050505050613646565b61363d8260200185018661237f565b82955050505050505b90565b7f455243313135353a207472616e7366657220746f206e6f6e204552433131353560008201527f526563656976657220696d706c656d656e746572000000000000000000000000602082015250565b60006136a560348361226e565b91506136b082613649565b604082019050919050565b600060208201905081810360008301526136d481613698565b9050919050565b7f455243313135353a204552433131353552656365697665722072656a6563746560008201527f6420746f6b656e73000000000000000000000000000000000000000000000000602082015250565b600061373760288361226e565b9150613742826136db565b604082019050919050565b600060208201905081810360008301526137668161372a565b9050919050565b600060a08201905061378260008301886128bd565b61378f60208301876128bd565b81810360408301526137a181866127b2565b905081810360608301526137b581856127b2565b905081810360808301526137c981846134af565b9050969550505050505056fea26469706673582212209834fb73167095310e028fdfe364af2a9f8b736b1c4efcbff228e291b2ee66ee64736f6c634300080b0033",
  "linkReferences": {},
  "deployedLinkReferences": {}
}