{
  "_format": "hh-sol-artifact-1",
  "contractName": "TalesOfEldevia",
  "sourceName": "contracts/TalesOfEldevia.sol",
  "abi": [
    {
      "inputs": [],
      "stateMutability": "nonpayable",
      "type": "constructor"
    },
    {
      "anonymous": false,
      "inputs": [
        {
          "indexed": true,
          "internalType": "address",
          "name": "account",
          "type": "address"
        },
        {
          "indexed": true,
          "internalType": "address",
          "name": "operator",
          "type": "address"
        },
        {
          "indexed": false,
          "internalType": "bool",
          "name": "approved",
          "type": "bool"
        }
      ],
      "name": "ApprovalForAll",
      "type": "event"
    },
    {
      "anonymous": false,
      "inputs": [
        {
          "indexed": true,
          "internalType": "address",
          "name": "previousOwner",
          "type": "address"
        },
        {
          "indexed": true,
          "internalType": "address",
          "name": "newOwner",
          "type": "address"
        }
      ],
      "name": "OwnershipTransferred",
      "type": "event"
    },
    {
      "anonymous": false,
      "inputs": [
        {
          "indexed": true,
          "internalType": "address",
          "name": "operator",
          "type": "address"
        },
        {
          "indexed": true,
          "internalType": "address",
          "name": "from",
          "type": "address"
        },
        {
          "indexed": true,
          "internalType": "address",
          "name": "to",
          "type": "address"
        },
        {
          "indexed": false,
          "internalType": "uint256[]",
          "name": "ids",
          "type": "uint256[]"
        },
        {
          "indexed": false,
          "internalType": "uint256[]",
          "name": "values",
          "type": "uint256[]"
        }
      ],
      "name": "TransferBatch",
      "type": "event"
    },
    {
      "anonymous": false,
      "inputs": [
        {
          "indexed": true,
          "internalType": "address",
          "name": "operator",
          "type": "address"
        },
        {
          "indexed": true,
          "internalType": "address",
          "name": "from",
          "type": "address"
        },
        {
          "indexed": true,
          "internalType": "address",
          "name": "to",
          "type": "address"
        },
        {
          "indexed": false,
          "internalType": "uint256",
          "name": "id",
          "type": "uint256"
        },
        {
          "indexed": false,
          "internalType": "uint256",
          "name": "value",
          "type": "uint256"
        }
      ],
      "name": "TransferSingle",
      "type": "event"
    },
    {
      "anonymous": false,
      "inputs": [
        {
          "indexed": false,
          "internalType": "string",
          "name": "value",
          "type": "string"
        },
        {
          "indexed": true,
          "internalType": "uint256",
          "name": "id",
          "type": "uint256"
        }
      ],
      "name": "URI",
      "type": "event"
    },
    {
      "inputs": [
        {
          "internalType": "address",
          "name": "account",
          "type": "address"
        },
        {
          "internalType": "uint256",
          "name": "id",
          "type": "uint256"
        }
      ],
      "name": "balanceOf",
      "outputs": [
        {
          "internalType": "uint256",
          "name": "",
          "type": "uint256"
        }
      ],
      "stateMutability": "view",
      "type": "function"
    },
    {
      "inputs": [
        {
          "internalType": "address[]",
          "name": "accounts",
          "type": "address[]"
        },
        {
          "internalType": "uint256[]",
          "name": "ids",
          "type": "uint256[]"
        }
      ],
      "name": "balanceOfBatch",
      "outputs": [
        {
          "internalType": "uint256[]",
          "name": "",
          "type": "uint256[]"
        }
      ],
      "stateMutability": "view",
      "type": "function"
    },
    {
      "inputs": [
        {
          "internalType": "address",
          "name": "account",
          "type": "address"
        },
        {
          "internalType": "uint256",
          "name": "id",
          "type": "uint256"
        },
        {
          "internalType": "uint256",
          "name": "value",
          "type": "uint256"
        }
      ],
      "name": "burn",
      "outputs": [],
      "stateMutability": "nonpayable",
      "type": "function"
    },
    {
      "inputs": [
        {
          "internalType": "address",
          "name": "account",
          "type": "address"
        },
        {
          "internalType": "uint256[]",
          "name": "ids",
          "type": "uint256[]"
        },
        {
          "internalType": "uint256[]",
          "name": "values",
          "type": "uint256[]"
        }
      ],
      "name": "burnBatch",
      "outputs": [],
      "stateMutability": "nonpayable",
      "type": "function"
    },
    {
      "inputs": [],
      "name": "freeze",
      "outputs": [],
      "stateMutability": "nonpayable",
      "type": "function"
    },
    {
      "inputs": [],
      "name": "freezed",
      "outputs": [
        {
          "internalType": "bool",
          "name": "",
          "type": "bool"
        }
      ],
      "stateMutability": "view",
      "type": "function"
    },
    {
      "inputs": [
        {
          "internalType": "address",
          "name": "account",
          "type": "address"
        },
        {
          "internalType": "address",
          "name": "operator",
          "type": "address"
        }
      ],
      "name": "isApprovedForAll",
      "outputs": [
        {
          "internalType": "bool",
          "name": "",
          "type": "bool"
        }
      ],
      "stateMutability": "view",
      "type": "function"
    },
    {
      "inputs": [],
      "name": "maxSupply",
      "outputs": [
        {
          "internalType": "uint256",
          "name": "",
          "type": "uint256"
        }
      ],
      "stateMutability": "view",
      "type": "function"
    },
    {
      "inputs": [],
      "name": "mint",
      "outputs": [],
      "stateMutability": "payable",
      "type": "function"
    },
    {
      "inputs": [
        {
          "internalType": "address",
          "name": "",
          "type": "address"
        }
      ],
      "name": "minted",
      "outputs": [
        {
          "internalType": "uint256",
          "name": "",
          "type": "uint256"
        }
      ],
      "stateMutability": "view",
      "type": "function"
    },
    {
      "inputs": [],
      "name": "owner",
      "outputs": [
        {
          "internalType": "address",
          "name": "",
          "type": "address"
        }
      ],
      "stateMutability": "view",
      "type": "function"
    },
    {
      "inputs": [],
      "name": "price",
      "outputs": [
        {
          "internalType": "uint256",
          "name": "",
          "type": "uint256"
        }
      ],
      "stateMutability": "view",
      "type": "function"
    },
    {
      "inputs": [],
      "name": "renounceOwnership",
      "outputs": [],
      "stateMutability": "nonpayable",
      "type": "function"
    },
    {
      "inputs": [
        {
          "internalType": "address",
          "name": "from",
          "type": "address"
        },
        {
          "internalType": "address",
          "name": "to",
          "type": "address"
        },
        {
          "internalType": "uint256[]",
          "name": "ids",
          "type": "uint256[]"
        },
        {
          "internalType": "uint256[]",
          "name": "amounts",
          "type": "uint256[]"
        },
        {
          "internalType": "bytes",
          "name": "data",
          "type": "bytes"
        }
      ],
      "name": "safeBatchTransferFrom",
      "outputs": [],
      "stateMutability": "nonpayable",
      "type": "function"
    },
    {
      "inputs": [
        {
          "internalType": "address",
          "name": "from",
          "type": "address"
        },
        {
          "internalType": "address",
          "name": "to",
          "type": "address"
        },
        {
          "internalType": "uint256",
          "name": "id",
          "type": "uint256"
        },
        {
          "internalType": "uint256",
          "name": "amount",
          "type": "uint256"
        },
        {
          "internalType": "bytes",
          "name": "data",
          "type": "bytes"
        }
      ],
      "name": "safeTransferFrom",
      "outputs": [],
      "stateMutability": "nonpayable",
      "type": "function"
    },
    {
      "inputs": [
        {
          "internalType": "address",
          "name": "operator",
          "type": "address"
        },
        {
          "internalType": "bool",
          "name": "approved",
          "type": "bool"
        }
      ],
      "name": "setApprovalForAll",
      "outputs": [],
      "stateMutability": "nonpayable",
      "type": "function"
    },
    {
      "inputs": [
        {
          "internalType": "uint256",
          "name": "_maxSupply",
          "type": "uint256"
        }
      ],
      "name": "setMaxSupply",
      "outputs": [],
      "stateMutability": "nonpayable",
      "type": "function"
    },
    {
      "inputs": [
        {
          "internalType": "uint256",
          "name": "_price",
          "type": "uint256"
        }
      ],
      "name": "setPrice",
      "outputs": [],
      "stateMutability": "nonpayable",
      "type": "function"
    },
    {
      "inputs": [
        {
          "internalType": "string",
          "name": "__uri",
          "type": "string"
        }
      ],
      "name": "setUri",
      "outputs": [],
      "stateMutability": "nonpayable",
      "type": "function"
    },
    {
      "inputs": [
        {
          "internalType": "bytes4",
          "name": "interfaceId",
          "type": "bytes4"
        }
      ],
      "name": "supportsInterface",
      "outputs": [
        {
          "internalType": "bool",
          "name": "",
          "type": "bool"
        }
      ],
      "stateMutability": "view",
      "type": "function"
    },
    {
      "inputs": [],
      "name": "totalMinted",
      "outputs": [
        {
          "internalType": "uint256",
          "name": "",
          "type": "uint256"
        }
      ],
      "stateMutability": "view",
      "type": "function"
    },
    {
      "inputs": [
        {
          "internalType": "address",
          "name": "newOwner",
          "type": "address"
        }
      ],
      "name": "transferOwnership",
      "outputs": [],
      "stateMutability": "nonpayable",
      "type": "function"
    },
    {
      "inputs": [
        {
          "internalType": "uint256",
          "name": "",
          "type": "uint256"
        }
      ],
      "name": "uri",
      "outputs": [
        {
          "internalType": "string",
          "name": "",
          "type": "string"
        }
      ],
      "stateMutability": "view",
      "type": "function"
    }
  ],
  "bytecode": "0x60806040523480156200001157600080fd5b506040518060200160405280600081525062000033816200005a60201b60201c565b5062000054620000486200007660201b60201c565b6200007e60201b60201c565b62000259565b80600290805190602001906200007292919062000144565b5050565b600033905090565b6000600360009054906101000a900473ffffffffffffffffffffffffffffffffffffffff16905081600360006101000a81548173ffffffffffffffffffffffffffffffffffffffff021916908373ffffffffffffffffffffffffffffffffffffffff1602179055508173ffffffffffffffffffffffffffffffffffffffff168173ffffffffffffffffffffffffffffffffffffffff167f8be0079c531659141344cd1fd0a4f28419497f9722a3daafe3b4186f6b6457e060405160405180910390a35050565b828054620001529062000223565b90600052602060002090601f016020900481019282620001765760008555620001c2565b82601f106200019157805160ff1916838001178555620001c2565b82800160010185558215620001c2579182015b82811115620001c1578251825591602001919060010190620001a4565b5b509050620001d19190620001d5565b5090565b5b80821115620001f0576000816000905550600101620001d6565b5090565b7f4e487b7100000000000000000000000000000000000000000000000000000000600052602260045260246000fd5b600060028204905060018216806200023c57607f821691505b60208210811415620002535762000252620001f4565b5b50919050565b613e7280620002696000396000f3fe60806040526004361061013f5760003560e01c80638da5cb5b116100b6578063b7540d9f1161006f578063b7540d9f14610424578063d5abeb011461044f578063e985e9c51461047a578063f242432a146104b7578063f2fde38b146104e0578063f5298aca146105095761013f565b80638da5cb5b1461032857806391b7f5ed146103535780639b642de11461037c578063a035b1fe146103a5578063a22cb465146103d0578063a2309ff8146103f95761013f565b80632eb2c2d6116101085780632eb2c2d6146102425780634e1273f41461026b57806362a5af3b146102a85780636b20c454146102bf5780636f8b44b0146102e8578063715018a6146103115761013f565b8062fdd58e1461014457806301ffc9a7146101815780630e89341c146101be5780631249c58b146101fb5780631e7269c514610205575b600080fd5b34801561015057600080fd5b5061016b60048036038101906101669190612634565b610532565b6040516101789190612683565b60405180910390f35b34801561018d57600080fd5b506101a860048036038101906101a391906126f6565b6105fb565b6040516101b5919061273e565b60405180910390f35b3480156101ca57600080fd5b506101e560048036038101906101e09190612759565b6106dd565b6040516101f2919061281f565b60405180910390f35b610203610771565b005b34801561021157600080fd5b5061022c60048036038101906102279190612841565b610908565b6040516102399190612683565b60405180910390f35b34801561024e57600080fd5b5061026960048036038101906102649190612a6b565b610920565b005b34801561027757600080fd5b50610292600480360381019061028d9190612bfd565b6109c1565b60405161029f9190612d33565b60405180910390f35b3480156102b457600080fd5b506102bd610ada565b005b3480156102cb57600080fd5b506102e660048036038101906102e19190612d55565b610b73565b005b3480156102f457600080fd5b5061030f600480360381019061030a9190612759565b610c10565b005b34801561031d57600080fd5b50610326610ce6565b005b34801561033457600080fd5b5061033d610d6e565b60405161034a9190612def565b60405180910390f35b34801561035f57600080fd5b5061037a60048036038101906103759190612759565b610d98565b005b34801561038857600080fd5b506103a3600480360381019061039e9190612e65565b610e6e565b005b3480156103b157600080fd5b506103ba610f00565b6040516103c79190612683565b60405180910390f35b3480156103dc57600080fd5b506103f760048036038101906103f29190612ede565b610f06565b005b34801561040557600080fd5b5061040e610f1c565b60405161041b9190612683565b60405180910390f35b34801561043057600080fd5b50610439610f22565b604051610446919061273e565b60405180910390f35b34801561045b57600080fd5b50610464610f35565b6040516104719190612683565b60405180910390f35b34801561048657600080fd5b506104a1600480360381019061049c9190612f1e565b610f3b565b6040516104ae919061273e565b60405180910390f35b3480156104c357600080fd5b506104de60048036038101906104d99190612f5e565b610fcf565b005b3480156104ec57600080fd5b5061050760048036038101906105029190612841565b611070565b005b34801561051557600080fd5b50610530600480360381019061052b9190612ff5565b611168565b005b60008073ffffffffffffffffffffffffffffffffffffffff168373ffffffffffffffffffffffffffffffffffffffff1614156105a3576040517f08c379a000000000000000000000000000000000000000000000000000000000815260040161059a906130ba565b60405180910390fd5b60008083815260200190815260200160002060008473ffffffffffffffffffffffffffffffffffffffff1673ffffffffffffffffffffffffffffffffffffffff16815260200190815260200160002054905092915050565b60007fd9b67a26000000000000000000000000000000000000000000000000000000007bffffffffffffffffffffffffffffffffffffffffffffffffffffffff1916827bffffffffffffffffffffffffffffffffffffffffffffffffffffffff191614806106c657507f0e89341c000000000000000000000000000000000000000000000000000000007bffffffffffffffffffffffffffffffffffffffffffffffffffffffff1916827bffffffffffffffffffffffffffffffffffffffffffffffffffffffff1916145b806106d657506106d582611205565b5b9050919050565b6060600480546106ec90613109565b80601f016020809104026020016040519081016040528092919081815260200182805461071890613109565b80156107655780601f1061073a57610100808354040283529160200191610765565b820191906000526020600020905b81548152906001019060200180831161074857829003601f168201915b50505050509050919050565b60058060003373ffffffffffffffffffffffffffffffffffffffff1673ffffffffffffffffffffffffffffffffffffffff16815260200190815260200160002054106107f2576040517f08c379a00000000000000000000000000000000000000000000000000000000081526004016107e990613187565b60405180910390fd5b60075460065410610838576040517f08c379a000000000000000000000000000000000000000000000000000000000815260040161082f906131f3565b60405180910390fd5b600854341461087c576040517f08c379a00000000000000000000000000000000000000000000000000000000081526004016108739061325f565b60405180910390fd5b600560003373ffffffffffffffffffffffffffffffffffffffff1673ffffffffffffffffffffffffffffffffffffffff16815260200190815260200160002060008154809291906108cc906132ae565b9190505550600660008154809291906108e4906132ae565b919050555061090633600060016040518060200160405280600081525061126f565b565b60056020528060005260406000206000915090505481565b610928611405565b73ffffffffffffffffffffffffffffffffffffffff168573ffffffffffffffffffffffffffffffffffffffff16148061096e575061096d85610968611405565b610f3b565b5b6109ad576040517f08c379a00000000000000000000000000000000000000000000000000000000081526004016109a490613369565b60405180910390fd5b6109ba858585858561140d565b5050505050565b60608151835114610a07576040517f08c379a00000000000000000000000000000000000000000000000000000000081526004016109fe906133fb565b60405180910390fd5b6000835167ffffffffffffffff811115610a2457610a23612873565b5b604051908082528060200260200182016040528015610a525781602001602082028036833780820191505090505b50905060005b8451811015610acf57610a9f858281518110610a7757610a7661341b565b5b6020026020010151858381518110610a9257610a9161341b565b5b6020026020010151610532565b828281518110610ab257610ab161341b565b5b60200260200101818152505080610ac8906132ae565b9050610a58565b508091505092915050565b610ae2611405565b73ffffffffffffffffffffffffffffffffffffffff16610b00610d6e565b73ffffffffffffffffffffffffffffffffffffffff1614610b56576040517f08c379a0000000000000000000000000000000000000000000000000000000008152600401610b4d90613496565b60405180910390fd5b6001600960006101000a81548160ff021916908315150217905550565b610b7b611405565b73ffffffffffffffffffffffffffffffffffffffff168373ffffffffffffffffffffffffffffffffffffffff161480610bc15750610bc083610bbb611405565b610f3b565b5b610c00576040517f08c379a0000000000000000000000000000000000000000000000000000000008152600401610bf790613528565b60405180910390fd5b610c0b838383611721565b505050565b610c18611405565b73ffffffffffffffffffffffffffffffffffffffff16610c36610d6e565b73ffffffffffffffffffffffffffffffffffffffff1614610c8c576040517f08c379a0000000000000000000000000000000000000000000000000000000008152600401610c8390613496565b60405180910390fd5b600960009054906101000a900460ff1615610cdc576040517f08c379a0000000000000000000000000000000000000000000000000000000008152600401610cd390613594565b60405180910390fd5b8060078190555050565b610cee611405565b73ffffffffffffffffffffffffffffffffffffffff16610d0c610d6e565b73ffffffffffffffffffffffffffffffffffffffff1614610d62576040517f08c379a0000000000000000000000000000000000000000000000000000000008152600401610d5990613496565b60405180910390fd5b610d6c60006119d2565b565b6000600360009054906101000a900473ffffffffffffffffffffffffffffffffffffffff16905090565b610da0611405565b73ffffffffffffffffffffffffffffffffffffffff16610dbe610d6e565b73ffffffffffffffffffffffffffffffffffffffff1614610e14576040517f08c379a0000000000000000000000000000000000000000000000000000000008152600401610e0b90613496565b60405180910390fd5b600960009054906101000a900460ff1615610e64576040517f08c379a0000000000000000000000000000000000000000000000000000000008152600401610e5b90613594565b60405180910390fd5b8060088190555050565b610e76611405565b73ffffffffffffffffffffffffffffffffffffffff16610e94610d6e565b73ffffffffffffffffffffffffffffffffffffffff1614610eea576040517f08c379a0000000000000000000000000000000000000000000000000000000008152600401610ee190613496565b60405180910390fd5b818160049190610efb9291906124e9565b505050565b60085481565b610f18610f11611405565b8383611a98565b5050565b60065481565b600960009054906101000a900460ff1681565b60075481565b6000600160008473ffffffffffffffffffffffffffffffffffffffff1673ffffffffffffffffffffffffffffffffffffffff16815260200190815260200160002060008373ffffffffffffffffffffffffffffffffffffffff1673ffffffffffffffffffffffffffffffffffffffff16815260200190815260200160002060009054906101000a900460ff16905092915050565b610fd7611405565b73ffffffffffffffffffffffffffffffffffffffff168573ffffffffffffffffffffffffffffffffffffffff16148061101d575061101c85611017611405565b610f3b565b5b61105c576040517f08c379a000000000000000000000000000000000000000000000000000000000815260040161105390613528565b60405180910390fd5b6110698585858585611c05565b5050505050565b611078611405565b73ffffffffffffffffffffffffffffffffffffffff16611096610d6e565b73ffffffffffffffffffffffffffffffffffffffff16146110ec576040517f08c379a00000000000000000000000000000000000000000000000000000000081526004016110e390613496565b60405180910390fd5b600073ffffffffffffffffffffffffffffffffffffffff168173ffffffffffffffffffffffffffffffffffffffff16141561115c576040517f08c379a000000000000000000000000000000000000000000000000000000000815260040161115390613626565b60405180910390fd5b611165816119d2565b50565b611170611405565b73ffffffffffffffffffffffffffffffffffffffff168373ffffffffffffffffffffffffffffffffffffffff1614806111b657506111b5836111b0611405565b610f3b565b5b6111f5576040517f08c379a00000000000000000000000000000000000000000000000000000000081526004016111ec90613528565b60405180910390fd5b611200838383611e87565b505050565b60007f01ffc9a7000000000000000000000000000000000000000000000000000000007bffffffffffffffffffffffffffffffffffffffffffffffffffffffff1916827bffffffffffffffffffffffffffffffffffffffffffffffffffffffff1916149050919050565b600073ffffffffffffffffffffffffffffffffffffffff168473ffffffffffffffffffffffffffffffffffffffff1614156112df576040517f08c379a00000000000000000000000000000000000000000000000000000000081526004016112d6906136b8565b60405180910390fd5b60006112e9611405565b905061130a816000876112fb886120a4565b611304886120a4565b8761211e565b8260008086815260200190815260200160002060008773ffffffffffffffffffffffffffffffffffffffff1673ffffffffffffffffffffffffffffffffffffffff168152602001908152602001600020600082825461136991906136d8565b925050819055508473ffffffffffffffffffffffffffffffffffffffff16600073ffffffffffffffffffffffffffffffffffffffff168273ffffffffffffffffffffffffffffffffffffffff167fc3d58168c5ae7397731d063d5bbf3d657854427343f4c083240f7aacaa2d0f6287876040516113e792919061372e565b60405180910390a46113fe81600087878787612126565b5050505050565b600033905090565b8151835114611451576040517f08c379a0000000000000000000000000000000000000000000000000000000008152600401611448906137c9565b60405180910390fd5b600073ffffffffffffffffffffffffffffffffffffffff168473ffffffffffffffffffffffffffffffffffffffff1614156114c1576040517f08c379a00000000000000000000000000000000000000000000000000000000081526004016114b89061385b565b60405180910390fd5b60006114cb611405565b90506114db81878787878761211e565b60005b845181101561168c5760008582815181106114fc576114fb61341b565b5b60200260200101519050600085838151811061151b5761151a61341b565b5b60200260200101519050600080600084815260200190815260200160002060008b73ffffffffffffffffffffffffffffffffffffffff1673ffffffffffffffffffffffffffffffffffffffff168152602001908152602001600020549050818110156115bc576040517f08c379a00000000000000000000000000000000000000000000000000000000081526004016115b3906138ed565b60405180910390fd5b81810360008085815260200190815260200160002060008c73ffffffffffffffffffffffffffffffffffffffff1673ffffffffffffffffffffffffffffffffffffffff168152602001908152602001600020819055508160008085815260200190815260200160002060008b73ffffffffffffffffffffffffffffffffffffffff1673ffffffffffffffffffffffffffffffffffffffff168152602001908152602001600020600082825461167191906136d8565b9250508190555050505080611685906132ae565b90506114de565b508473ffffffffffffffffffffffffffffffffffffffff168673ffffffffffffffffffffffffffffffffffffffff168273ffffffffffffffffffffffffffffffffffffffff167f4a39dc06d4c0dbc64b70af90fd698a233a518aa5d07e595d983b8c0526c8f7fb878760405161170392919061390d565b60405180910390a46117198187878787876122fe565b505050505050565b600073ffffffffffffffffffffffffffffffffffffffff168373ffffffffffffffffffffffffffffffffffffffff161415611791576040517f08c379a0000000000000000000000000000000000000000000000000000000008152600401611788906139b6565b60405180910390fd5b80518251146117d5576040517f08c379a00000000000000000000000000000000000000000000000000000000081526004016117cc906137c9565b60405180910390fd5b60006117df611405565b90506117ff8185600086866040518060200160405280600081525061211e565b60005b835181101561194c5760008482815181106118205761181f61341b565b5b60200260200101519050600084838151811061183f5761183e61341b565b5b60200260200101519050600080600084815260200190815260200160002060008973ffffffffffffffffffffffffffffffffffffffff1673ffffffffffffffffffffffffffffffffffffffff168152602001908152602001600020549050818110156118e0576040517f08c379a00000000000000000000000000000000000000000000000000000000081526004016118d790613a48565b60405180910390fd5b81810360008085815260200190815260200160002060008a73ffffffffffffffffffffffffffffffffffffffff1673ffffffffffffffffffffffffffffffffffffffff168152602001908152602001600020819055505050508080611944906132ae565b915050611802565b50600073ffffffffffffffffffffffffffffffffffffffff168473ffffffffffffffffffffffffffffffffffffffff168273ffffffffffffffffffffffffffffffffffffffff167f4a39dc06d4c0dbc64b70af90fd698a233a518aa5d07e595d983b8c0526c8f7fb86866040516119c492919061390d565b60405180910390a450505050565b6000600360009054906101000a900473ffffffffffffffffffffffffffffffffffffffff16905081600360006101000a81548173ffffffffffffffffffffffffffffffffffffffff021916908373ffffffffffffffffffffffffffffffffffffffff1602179055508173ffffffffffffffffffffffffffffffffffffffff168173ffffffffffffffffffffffffffffffffffffffff167f8be0079c531659141344cd1fd0a4f28419497f9722a3daafe3b4186f6b6457e060405160405180910390a35050565b8173ffffffffffffffffffffffffffffffffffffffff168373ffffffffffffffffffffffffffffffffffffffff161415611b07576040517f08c379a0000000000000000000000000000000000000000000000000000000008152600401611afe90613ada565b60405180910390fd5b80600160008573ffffffffffffffffffffffffffffffffffffffff1673ffffffffffffffffffffffffffffffffffffffff16815260200190815260200160002060008473ffffffffffffffffffffffffffffffffffffffff1673ffffffffffffffffffffffffffffffffffffffff16815260200190815260200160002060006101000a81548160ff0219169083151502179055508173ffffffffffffffffffffffffffffffffffffffff168373ffffffffffffffffffffffffffffffffffffffff167f17307eab39ab6107e8899845ad3d59bd9653f200f220920489ca2b5937696c3183604051611bf8919061273e565b60405180910390a3505050565b600073ffffffffffffffffffffffffffffffffffffffff168473ffffffffffffffffffffffffffffffffffffffff161415611c75576040517f08c379a0000000000000000000000000000000000000000000000000000000008152600401611c6c9061385b565b60405180910390fd5b6000611c7f611405565b9050611c9f818787611c90886120a4565b611c99886120a4565b8761211e565b600080600086815260200190815260200160002060008873ffffffffffffffffffffffffffffffffffffffff1673ffffffffffffffffffffffffffffffffffffffff16815260200190815260200160002054905083811015611d36576040517f08c379a0000000000000000000000000000000000000000000000000000000008152600401611d2d906138ed565b60405180910390fd5b83810360008087815260200190815260200160002060008973ffffffffffffffffffffffffffffffffffffffff1673ffffffffffffffffffffffffffffffffffffffff168152602001908152602001600020819055508360008087815260200190815260200160002060008873ffffffffffffffffffffffffffffffffffffffff1673ffffffffffffffffffffffffffffffffffffffff1681526020019081526020016000206000828254611deb91906136d8565b925050819055508573ffffffffffffffffffffffffffffffffffffffff168773ffffffffffffffffffffffffffffffffffffffff168373ffffffffffffffffffffffffffffffffffffffff167fc3d58168c5ae7397731d063d5bbf3d657854427343f4c083240f7aacaa2d0f628888604051611e6892919061372e565b60405180910390a4611e7e828888888888612126565b50505050505050565b600073ffffffffffffffffffffffffffffffffffffffff168373ffffffffffffffffffffffffffffffffffffffff161415611ef7576040517f08c379a0000000000000000000000000000000000000000000000000000000008152600401611eee906139b6565b60405180910390fd5b6000611f01611405565b9050611f3181856000611f13876120a4565b611f1c876120a4565b6040518060200160405280600081525061211e565b600080600085815260200190815260200160002060008673ffffffffffffffffffffffffffffffffffffffff1673ffffffffffffffffffffffffffffffffffffffff16815260200190815260200160002054905082811015611fc8576040517f08c379a0000000000000000000000000000000000000000000000000000000008152600401611fbf90613a48565b60405180910390fd5b82810360008086815260200190815260200160002060008773ffffffffffffffffffffffffffffffffffffffff1673ffffffffffffffffffffffffffffffffffffffff16815260200190815260200160002081905550600073ffffffffffffffffffffffffffffffffffffffff168573ffffffffffffffffffffffffffffffffffffffff168373ffffffffffffffffffffffffffffffffffffffff167fc3d58168c5ae7397731d063d5bbf3d657854427343f4c083240f7aacaa2d0f62878760405161209592919061372e565b60405180910390a45050505050565b60606000600167ffffffffffffffff8111156120c3576120c2612873565b5b6040519080825280602002602001820160405280156120f15781602001602082028036833780820191505090505b50905082816000815181106121095761210861341b565b5b60200260200101818152505080915050919050565b505050505050565b6121458473ffffffffffffffffffffffffffffffffffffffff166124d6565b156122f6578373ffffffffffffffffffffffffffffffffffffffff1663f23a6e6187878686866040518663ffffffff1660e01b815260040161218b959493929190613b4f565b6020604051808303816000875af19250505080156121c757506040513d601f19601f820116820180604052508101906121c49190613bbe565b60015b61226d576121d3613bf8565b806308c379a0141561223057506121e8613c1a565b806121f35750612232565b806040517f08c379a0000000000000000000000000000000000000000000000000000000008152600401612227919061281f565b60405180910390fd5b505b6040517f08c379a000000000000000000000000000000000000000000000000000000000815260040161226490613d22565b60405180910390fd5b63f23a6e6160e01b7bffffffffffffffffffffffffffffffffffffffffffffffffffffffff1916817bffffffffffffffffffffffffffffffffffffffffffffffffffffffff1916146122f4576040517f08c379a00000000000000000000000000000000000000000000000000000000081526004016122eb90613db4565b60405180910390fd5b505b505050505050565b61231d8473ffffffffffffffffffffffffffffffffffffffff166124d6565b156124ce578373ffffffffffffffffffffffffffffffffffffffff1663bc197c8187878686866040518663ffffffff1660e01b8152600401612363959493929190613dd4565b6020604051808303816000875af192505050801561239f57506040513d601f19601f8201168201806040525081019061239c9190613bbe565b60015b612445576123ab613bf8565b806308c379a0141561240857506123c0613c1a565b806123cb575061240a565b806040517f08c379a00000000000000000000000000000000000000000000000000000000081526004016123ff919061281f565b60405180910390fd5b505b6040517f08c379a000000000000000000000000000000000000000000000000000000000815260040161243c90613d22565b60405180910390fd5b63bc197c8160e01b7bffffffffffffffffffffffffffffffffffffffffffffffffffffffff1916817bffffffffffffffffffffffffffffffffffffffffffffffffffffffff1916146124cc576040517f08c379a00000000000000000000000000000000000000000000000000000000081526004016124c390613db4565b60405180910390fd5b505b505050505050565b600080823b905060008111915050919050565b8280546124f590613109565b90600052602060002090601f016020900481019282612517576000855561255e565b82601f1061253057803560ff191683800117855561255e565b8280016001018555821561255e579182015b8281111561255d578235825591602001919060010190612542565b5b50905061256b919061256f565b5090565b5b80821115612588576000816000905550600101612570565b5090565b6000604051905090565b600080fd5b600080fd5b600073ffffffffffffffffffffffffffffffffffffffff82169050919050565b60006125cb826125a0565b9050919050565b6125db816125c0565b81146125e657600080fd5b50565b6000813590506125f8816125d2565b92915050565b6000819050919050565b612611816125fe565b811461261c57600080fd5b50565b60008135905061262e81612608565b92915050565b6000806040838503121561264b5761264a612596565b5b6000612659858286016125e9565b925050602061266a8582860161261f565b9150509250929050565b61267d816125fe565b82525050565b60006020820190506126986000830184612674565b92915050565b60007fffffffff0000000000000000000000000000000000000000000000000000000082169050919050565b6126d38161269e565b81146126de57600080fd5b50565b6000813590506126f0816126ca565b92915050565b60006020828403121561270c5761270b612596565b5b600061271a848285016126e1565b91505092915050565b60008115159050919050565b61273881612723565b82525050565b6000602082019050612753600083018461272f565b92915050565b60006020828403121561276f5761276e612596565b5b600061277d8482850161261f565b91505092915050565b600081519050919050565b600082825260208201905092915050565b60005b838110156127c05780820151818401526020810190506127a5565b838111156127cf576000848401525b50505050565b6000601f19601f8301169050919050565b60006127f182612786565b6127fb8185612791565b935061280b8185602086016127a2565b612814816127d5565b840191505092915050565b6000602082019050818103600083015261283981846127e6565b905092915050565b60006020828403121561285757612856612596565b5b6000612865848285016125e9565b91505092915050565b600080fd5b7f4e487b7100000000000000000000000000000000000000000000000000000000600052604160045260246000fd5b6128ab826127d5565b810181811067ffffffffffffffff821117156128ca576128c9612873565b5b80604052505050565b60006128dd61258c565b90506128e982826128a2565b919050565b600067ffffffffffffffff82111561290957612908612873565b5b602082029050602081019050919050565b600080fd5b600061293261292d846128ee565b6128d3565b905080838252602082019050602084028301858111156129555761295461291a565b5b835b8181101561297e578061296a888261261f565b845260208401935050602081019050612957565b5050509392505050565b600082601f83011261299d5761299c61286e565b5b81356129ad84826020860161291f565b91505092915050565b600080fd5b600067ffffffffffffffff8211156129d6576129d5612873565b5b6129df826127d5565b9050602081019050919050565b82818337600083830152505050565b6000612a0e612a09846129bb565b6128d3565b905082815260208101848484011115612a2a57612a296129b6565b5b612a358482856129ec565b509392505050565b600082601f830112612a5257612a5161286e565b5b8135612a628482602086016129fb565b91505092915050565b600080600080600060a08688031215612a8757612a86612596565b5b6000612a95888289016125e9565b9550506020612aa6888289016125e9565b945050604086013567ffffffffffffffff811115612ac757612ac661259b565b5b612ad388828901612988565b935050606086013567ffffffffffffffff811115612af457612af361259b565b5b612b0088828901612988565b925050608086013567ffffffffffffffff811115612b2157612b2061259b565b5b612b2d88828901612a3d565b9150509295509295909350565b600067ffffffffffffffff821115612b5557612b54612873565b5b602082029050602081019050919050565b6000612b79612b7484612b3a565b6128d3565b90508083825260208201905060208402830185811115612b9c57612b9b61291a565b5b835b81811015612bc55780612bb188826125e9565b845260208401935050602081019050612b9e565b5050509392505050565b600082601f830112612be457612be361286e565b5b8135612bf4848260208601612b66565b91505092915050565b60008060408385031215612c1457612c13612596565b5b600083013567ffffffffffffffff811115612c3257612c3161259b565b5b612c3e85828601612bcf565b925050602083013567ffffffffffffffff811115612c5f57612c5e61259b565b5b612c6b85828601612988565b9150509250929050565b600081519050919050565b600082825260208201905092915050565b6000819050602082019050919050565b612caa816125fe565b82525050565b6000612cbc8383612ca1565b60208301905092915050565b6000602082019050919050565b6000612ce082612c75565b612cea8185612c80565b9350612cf583612c91565b8060005b83811015612d26578151612d0d8882612cb0565b9750612d1883612cc8565b925050600181019050612cf9565b5085935050505092915050565b60006020820190508181036000830152612d4d8184612cd5565b905092915050565b600080600060608486031215612d6e57612d6d612596565b5b6000612d7c868287016125e9565b935050602084013567ffffffffffffffff811115612d9d57612d9c61259b565b5b612da986828701612988565b925050604084013567ffffffffffffffff811115612dca57612dc961259b565b5b612dd686828701612988565b9150509250925092565b612de9816125c0565b82525050565b6000602082019050612e046000830184612de0565b92915050565b600080fd5b60008083601f840112612e2557612e2461286e565b5b8235905067ffffffffffffffff811115612e4257612e41612e0a565b5b602083019150836001820283011115612e5e57612e5d61291a565b5b9250929050565b60008060208385031215612e7c57612e7b612596565b5b600083013567ffffffffffffffff811115612e9a57612e9961259b565b5b612ea685828601612e0f565b92509250509250929050565b612ebb81612723565b8114612ec657600080fd5b50565b600081359050612ed881612eb2565b92915050565b60008060408385031215612ef557612ef4612596565b5b6000612f03858286016125e9565b9250506020612f1485828601612ec9565b9150509250929050565b60008060408385031215612f3557612f34612596565b5b6000612f43858286016125e9565b9250506020612f54858286016125e9565b9150509250929050565b600080600080600060a08688031215612f7a57612f79612596565b5b6000612f88888289016125e9565b9550506020612f99888289016125e9565b9450506040612faa8882890161261f565b9350506060612fbb8882890161261f565b925050608086013567ffffffffffffffff811115612fdc57612fdb61259b565b5b612fe888828901612a3d565b9150509295509295909350565b60008060006060848603121561300e5761300d612596565b5b600061301c868287016125e9565b935050602061302d8682870161261f565b925050604061303e8682870161261f565b9150509250925092565b7f455243313135353a2062616c616e636520717565727920666f7220746865207a60008201527f65726f2061646472657373000000000000000000000000000000000000000000602082015250565b60006130a4602b83612791565b91506130af82613048565b604082019050919050565b600060208201905081810360008301526130d381613097565b9050919050565b7f4e487b7100000000000000000000000000000000000000000000000000000000600052602260045260246000fd5b6000600282049050600182168061312157607f821691505b60208210811415613135576131346130da565b5b50919050565b7f6d61782035207065722061646472657373000000000000000000000000000000600082015250565b6000613171601183612791565b915061317c8261313b565b602082019050919050565b600060208201905081810360008301526131a081613164565b9050919050565b7f6d696e74696e672063757272656e746c7920636c6f7365640000000000000000600082015250565b60006131dd601883612791565b91506131e8826131a7565b602082019050919050565b6000602082019050818103600083015261320c816131d0565b9050919050565b7f77726f6e67207072696365000000000000000000000000000000000000000000600082015250565b6000613249600b83612791565b915061325482613213565b602082019050919050565b600060208201905081810360008301526132788161323c565b9050919050565b7f4e487b7100000000000000000000000000000000000000000000000000000000600052601160045260246000fd5b60006132b9826125fe565b91507fffffffffffffffffffffffffffffffffffffffffffffffffffffffffffffffff8214156132ec576132eb61327f565b5b600182019050919050565b7f455243313135353a207472616e736665722063616c6c6572206973206e6f742060008201527f6f776e6572206e6f7220617070726f7665640000000000000000000000000000602082015250565b6000613353603283612791565b915061335e826132f7565b604082019050919050565b6000602082019050818103600083015261338281613346565b9050919050565b7f455243313135353a206163636f756e747320616e6420696473206c656e67746860008201527f206d69736d617463680000000000000000000000000000000000000000000000602082015250565b60006133e5602983612791565b91506133f082613389565b604082019050919050565b60006020820190508181036000830152613414816133d8565b9050919050565b7f4e487b7100000000000000000000000000000000000000000000000000000000600052603260045260246000fd5b7f4f776e61626c653a2063616c6c6572206973206e6f7420746865206f776e6572600082015250565b6000613480602083612791565b915061348b8261344a565b602082019050919050565b600060208201905081810360008301526134af81613473565b9050919050565b7f455243313135353a2063616c6c6572206973206e6f74206f776e6572206e6f7260008201527f20617070726f7665640000000000000000000000000000000000000000000000602082015250565b6000613512602983612791565b915061351d826134b6565b604082019050919050565b6000602082019050818103600083015261354181613505565b9050919050565b7f636f6e747261637420667265657a656400000000000000000000000000000000600082015250565b600061357e601083612791565b915061358982613548565b602082019050919050565b600060208201905081810360008301526135ad81613571565b9050919050565b7f4f776e61626c653a206e6577206f776e657220697320746865207a65726f206160008201527f6464726573730000000000000000000000000000000000000000000000000000602082015250565b6000613610602683612791565b915061361b826135b4565b604082019050919050565b6000602082019050818103600083015261363f81613603565b9050919050565b7f455243313135353a206d696e7420746f20746865207a65726f2061646472657360008201527f7300000000000000000000000000000000000000000000000000000000000000602082015250565b60006136a2602183612791565b91506136ad82613646565b604082019050919050565b600060208201905081810360008301526136d181613695565b9050919050565b60006136e3826125fe565b91506136ee836125fe565b9250827fffffffffffffffffffffffffffffffffffffffffffffffffffffffffffffffff038211156137235761372261327f565b5b828201905092915050565b60006040820190506137436000830185612674565b6137506020830184612674565b9392505050565b7f455243313135353a2069647320616e6420616d6f756e7473206c656e6774682060008201527f6d69736d61746368000000000000000000000000000000000000000000000000602082015250565b60006137b3602883612791565b91506137be82613757565b604082019050919050565b600060208201905081810360008301526137e2816137a6565b9050919050565b7f455243313135353a207472616e7366657220746f20746865207a65726f20616460008201527f6472657373000000000000000000000000000000000000000000000000000000602082015250565b6000613845602583612791565b9150613850826137e9565b604082019050919050565b6000602082019050818103600083015261387481613838565b9050919050565b7f455243313135353a20696e73756666696369656e742062616c616e636520666f60008201527f72207472616e7366657200000000000000000000000000000000000000000000602082015250565b60006138d7602a83612791565b91506138e28261387b565b604082019050919050565b60006020820190508181036000830152613906816138ca565b9050919050565b600060408201905081810360008301526139278185612cd5565b9050818103602083015261393b8184612cd5565b90509392505050565b7f455243313135353a206275726e2066726f6d20746865207a65726f206164647260008201527f6573730000000000000000000000000000000000000000000000000000000000602082015250565b60006139a0602383612791565b91506139ab82613944565b604082019050919050565b600060208201905081810360008301526139cf81613993565b9050919050565b7f455243313135353a206275726e20616d6f756e7420657863656564732062616c60008201527f616e636500000000000000000000000000000000000000000000000000000000602082015250565b6000613a32602483612791565b9150613a3d826139d6565b604082019050919050565b60006020820190508181036000830152613a6181613a25565b9050919050565b7f455243313135353a2073657474696e6720617070726f76616c2073746174757360008201527f20666f722073656c660000000000000000000000000000000000000000000000602082015250565b6000613ac4602983612791565b9150613acf82613a68565b604082019050919050565b60006020820190508181036000830152613af381613ab7565b9050919050565b600081519050919050565b600082825260208201905092915050565b6000613b2182613afa565b613b2b8185613b05565b9350613b3b8185602086016127a2565b613b44816127d5565b840191505092915050565b600060a082019050613b646000830188612de0565b613b716020830187612de0565b613b7e6040830186612674565b613b8b6060830185612674565b8181036080830152613b9d8184613b16565b90509695505050505050565b600081519050613bb8816126ca565b92915050565b600060208284031215613bd457613bd3612596565b5b6000613be284828501613ba9565b91505092915050565b60008160e01c9050919050565b600060033d1115613c175760046000803e613c14600051613beb565b90505b90565b600060443d1015613c2a57613cad565b613c3261258c565b60043d036004823e80513d602482011167ffffffffffffffff82111715613c5a575050613cad565b808201805167ffffffffffffffff811115613c785750505050613cad565b80602083010160043d038501811115613c95575050505050613cad565b613ca4826020018501866128a2565b82955050505050505b90565b7f455243313135353a207472616e7366657220746f206e6f6e204552433131353560008201527f526563656976657220696d706c656d656e746572000000000000000000000000602082015250565b6000613d0c603483612791565b9150613d1782613cb0565b604082019050919050565b60006020820190508181036000830152613d3b81613cff565b9050919050565b7f455243313135353a204552433131353552656365697665722072656a6563746560008201527f6420746f6b656e73000000000000000000000000000000000000000000000000602082015250565b6000613d9e602883612791565b9150613da982613d42565b604082019050919050565b60006020820190508181036000830152613dcd81613d91565b9050919050565b600060a082019050613de96000830188612de0565b613df66020830187612de0565b8181036040830152613e088186612cd5565b90508181036060830152613e1c8185612cd5565b90508181036080830152613e308184613b16565b9050969550505050505056fea2646970667358221220d0750deb0e0eae926e0e19b875a7402fbb77930dcf01ab7cbbfbead07a8c127864736f6c634300080b0033",
  "linkReferences": {},
  "deployedLinkReferences": {}
}